{
  "contractName": "BoardContract",
  "abi": [
    {
      "inputs": [
        {
          "internalType": "address",
          "name": "_postContractAddress",
          "type": "address"
        },
        {
          "internalType": "address",
          "name": "_userContractAddress",
          "type": "address"
        }
      ],
      "payable": false,
      "stateMutability": "nonpayable",
      "type": "constructor"
    },
    {
      "anonymous": false,
      "inputs": [
        {
          "indexed": false,
          "internalType": "address",
          "name": "",
          "type": "address"
        },
        {
          "indexed": false,
          "internalType": "uint256",
          "name": "",
          "type": "uint256"
        }
      ],
      "name": "TransEvent",
      "type": "event"
    },
    {
      "payable": true,
      "stateMutability": "payable",
      "type": "fallback"
    },
    {
      "constant": true,
      "inputs": [],
      "name": "board",
      "outputs": [
        {
          "internalType": "uint256",
          "name": "count",
          "type": "uint256"
        },
        {
          "internalType": "uint256",
          "name": "lastTime",
          "type": "uint256"
        },
        {
          "internalType": "uint256",
          "name": "span",
          "type": "uint256"
        },
        {
          "internalType": "uint256",
          "name": "fee",
          "type": "uint256"
        }
      ],
      "payable": false,
      "stateMutability": "view",
      "type": "function"
    },
    {
      "constant": true,
      "inputs": [],
      "name": "getContractAddress",
      "outputs": [
        {
          "internalType": "address payable",
          "name": "",
          "type": "address"
        }
      ],
      "payable": false,
      "stateMutability": "view",
      "type": "function"
    },
    {
      "constant": false,
      "inputs": [
        {
          "internalType": "uint256",
          "name": "_id",
          "type": "uint256"
        },
        {
          "internalType": "uint256",
          "name": "time",
          "type": "uint256"
        }
      ],
      "name": "showThePost",
      "outputs": [
        {
          "internalType": "bool",
          "name": "",
          "type": "bool"
        }
      ],
      "payable": true,
      "stateMutability": "payable",
      "type": "function"
    },
    {
      "constant": true,
      "inputs": [],
      "name": "getBoardFee",
      "outputs": [
        {
          "internalType": "uint256",
          "name": "",
          "type": "uint256"
        }
      ],
      "payable": false,
      "stateMutability": "view",
      "type": "function"
    },
    {
      "constant": true,
      "inputs": [],
      "name": "getBoardCount",
      "outputs": [
        {
          "internalType": "uint256",
          "name": "",
          "type": "uint256"
        }
      ],
      "payable": false,
      "stateMutability": "view",
      "type": "function"
    },
    {
      "constant": true,
      "inputs": [
        {
          "internalType": "uint256",
          "name": "_num",
          "type": "uint256"
        }
      ],
      "name": "getId",
      "outputs": [
        {
          "internalType": "uint256",
          "name": "",
          "type": "uint256"
        }
      ],
      "payable": false,
      "stateMutability": "view",
      "type": "function"
    },
    {
      "constant": true,
      "inputs": [
        {
          "internalType": "uint256",
          "name": "_num",
          "type": "uint256"
        }
      ],
      "name": "getExpireDate",
      "outputs": [
        {
          "internalType": "uint256",
          "name": "",
          "type": "uint256"
        }
      ],
      "payable": false,
      "stateMutability": "view",
      "type": "function"
    },
    {
      "constant": false,
      "inputs": [],
      "name": "check",
      "outputs": [],
      "payable": false,
      "stateMutability": "nonpayable",
      "type": "function"
    },
    {
      "constant": false,
      "inputs": [],
      "name": "checkTime",
      "outputs": [
        {
          "internalType": "bool",
          "name": "",
          "type": "bool"
        }
      ],
      "payable": true,
      "stateMutability": "payable",
      "type": "function"
    },
    {
      "constant": false,
      "inputs": [],
      "name": "distribute",
      "outputs": [],
      "payable": true,
      "stateMutability": "payable",
      "type": "function"
    }
  ],
  "bytecode": "0x60806040523480156200001157600080fd5b50604051620013cf380380620013cf83398181016040526200003791908101906200012f565b816000806101000a81548173ffffffffffffffffffffffffffffffffffffffff021916908373ffffffffffffffffffffffffffffffffffffffff16021790555080600160006101000a81548173ffffffffffffffffffffffffffffffffffffffff021916908373ffffffffffffffffffffffffffffffffffffffff160217905550604051806080016040528060008152602001428152602001603c8152602001678ac7230489e800008152506002600082015181600001556020820151816001015560408201518160020155606082015181600301559050505050620001be565b6000815190506200012981620001a4565b92915050565b600080604083850312156200014357600080fd5b6000620001538582860162000118565b9250506020620001668582860162000118565b9150509250929050565b60006200017d8262000184565b9050919050565b600073ffffffffffffffffffffffffffffffffffffffff82169050919050565b620001af8162000170565b8114620001bb57600080fd5b50565b61120180620001ce6000396000f3fe6080604052600436106100915760003560e01c8063919840ad11610059578063919840ad146101b9578063a4851720146101d0578063e0c6190d1461020d578063e4fc6b6d1461022b578063f69522411461023557610091565b80632495c718146100cd57806332a2c5d0146100f8578063545a153a14610123578063727903af146101605780637cd3229a1461018b575b7f5e3e3ac48142223910fa7d0c0fb4e15e6aac9c9cbc7a8dc20aa5dc9227d286833060016040516100c3929190610f76565b60405180910390a1005b3480156100d957600080fd5b506100e2610265565b6040516100ef9190610fda565b60405180910390f35b34801561010457600080fd5b5061010d610313565b60405161011a9190610f5b565b60405180910390f35b34801561012f57600080fd5b5061014a60048036036101459190810190610e42565b610320565b6040516101579190610fda565b60405180910390f35b34801561016c57600080fd5b50610175610340565b6040516101829190610fda565b60405180910390f35b34801561019757600080fd5b506101a061034d565b6040516101b09493929190610ff5565b60405180910390f35b3480156101c557600080fd5b506101ce61036b565b005b3480156101dc57600080fd5b506101f760048036036101f29190810190610e42565b61058c565b6040516102049190610fda565b60405180910390f35b6102156105ac565b6040516102229190610f9f565b60405180910390f35b6102336105e4565b005b61024f600480360361024a9190810190610e94565b610807565b60405161025c9190610f9f565b60405180910390f35b6000600160009054906101000a900473ffffffffffffffffffffffffffffffffffffffff1673ffffffffffffffffffffffffffffffffffffffff1663834f6c736040518163ffffffff1660e01b815260040160206040518083038186803b1580156102cf57600080fd5b505afa1580156102e3573d6000803e3d6000fd5b505050506040513d601f19601f820116820180604052506103079190810190610e6b565b60026003015402905090565b6000803090508091505090565b600060066000838152602001908152602001600020600101549050919050565b6000600260000154905090565b60028060000154908060010154908060020154908060030154905084565b610373610bb9565b600060026000015490505b60008111156103f257426006600083815260200190815260200160002060040154116103c65760008282600481106103b257fe5b6020020190151590811515815250506103e4565b60018282600481106103d457fe5b6020020190151590811515815250505b80806001900391505061037e565b60008090505b600260000154826001019250821161042e5782826004811061041657fe5b6020020151156104295780806001019150505b6103f8565b6000600190505b600260000154811161057c5760008190505b600260000154811161056e5784816004811061045f57fe5b602002015115610561576006600082815260200190815260200160002060066000848152602001908152602001600020600082018160000190805460018160011615610100020316600290046104b6929190610bdb565b50600182015481600101556002820160009054906101000a900473ffffffffffffffffffffffffffffffffffffffff168160020160006101000a81548173ffffffffffffffffffffffffffffffffffffffff021916908373ffffffffffffffffffffffffffffffffffffffff1602179055506003820154816003015560048201548160040155905050600085826004811061054d57fe5b60200201901515908115158152505061056e565b8080600101915050610447565b818060010192505050610435565b8160026000018190555050505050565b600060066000838152602001908152602001600020600401549050919050565b60006002800154600260010154014211156105dc57426002600101819055506105d36105e4565b600190506105e1565b600090505b90565b6000600160009054906101000a900473ffffffffffffffffffffffffffffffffffffffff1673ffffffffffffffffffffffffffffffffffffffff1663834f6c736040518163ffffffff1660e01b815260040160206040518083038186803b15801561064e57600080fd5b505afa158015610662573d6000803e3d6000fd5b505050506040513d601f19601f820116820180604052506106869190810190610e6b565b90506000610692610313565b905060008173ffffffffffffffffffffffffffffffffffffffff16319050600080905060008483816106c057fe5b0614156106d8578382816106d057fe5b0490506106f3565b8382816106e157fe5b06820391508382816106ef57fe5b0490505b5b60008414610801576000600160009054906101000a900473ffffffffffffffffffffffffffffffffffffffff1673ffffffffffffffffffffffffffffffffffffffff1663b0467deb866040518263ffffffff1660e01b81526004016107599190610fda565b60206040518083038186803b15801561077157600080fd5b505afa158015610785573d6000803e3d6000fd5b505050506040513d601f19601f820116820180604052506107a99190810190610daf565b90508073ffffffffffffffffffffffffffffffffffffffff166108fc839081150290604051600060405180830381858888f193505050501580156107f1573d6000803e3d6000fd5b50848060019003955050506106f4565b50505050565b600060036002600001541061081f5760009050610bb3565b60003090506000600160009054906101000a900473ffffffffffffffffffffffffffffffffffffffff1673ffffffffffffffffffffffffffffffffffffffff1663834f6c736040518163ffffffff1660e01b815260040160206040518083038186803b15801561088e57600080fd5b505afa1580156108a2573d6000803e3d6000fd5b505050506040513d601f19601f820116820180604052506108c69190810190610e6b565b600260030154603c86816108d657fe5b040202905080341461091d576040517f08c379a000000000000000000000000000000000000000000000000000000000815260040161091490610fba565b60405180910390fd5b8173ffffffffffffffffffffffffffffffffffffffff166108fc349081150290604051600060405180830381858888f19350505050158015610963573d6000803e3d6000fd5b506002600001600081548092919060010191905055506040518060a001604052806000809054906101000a900473ffffffffffffffffffffffffffffffffffffffff1673ffffffffffffffffffffffffffffffffffffffff1663929a79b1886040518263ffffffff1660e01b81526004016109de9190610fda565b60006040518083038186803b1580156109f657600080fd5b505afa158015610a0a573d6000803e3d6000fd5b505050506040513d6000823e3d601f19601f82011682018060405250610a339190810190610e01565b81526020018681526020016000809054906101000a900473ffffffffffffffffffffffffffffffffffffffff1673ffffffffffffffffffffffffffffffffffffffff16639e2b8488886040518263ffffffff1660e01b8152600401610a989190610fda565b60206040518083038186803b158015610ab057600080fd5b505afa158015610ac4573d6000803e3d6000fd5b505050506040513d601f19601f82011682018060405250610ae89190810190610dd8565b73ffffffffffffffffffffffffffffffffffffffff1681526020014281526020018542018152506006600060026000015481526020019081526020016000206000820151816000019080519060200190610b43929190610c62565b506020820151816001015560408201518160020160006101000a81548173ffffffffffffffffffffffffffffffffffffffff021916908373ffffffffffffffffffffffffffffffffffffffff16021790555060608201518160030155608082015181600401559050506001925050505b92915050565b6040518060800160405280600490602082028038833980820191505090505090565b828054600181600116156101000203166002900490600052602060002090601f016020900481019282601f10610c145780548555610c51565b82800160010185558215610c5157600052602060002091601f016020900482015b82811115610c50578254825591600101919060010190610c35565b5b509050610c5e9190610ce2565b5090565b828054600181600116156101000203166002900490600052602060002090601f016020900481019282601f10610ca357805160ff1916838001178555610cd1565b82800160010185558215610cd1579182015b82811115610cd0578251825591602001919060010190610cb5565b5b509050610cde9190610ce2565b5090565b610d0491905b80821115610d00576000816000905550600101610ce8565b5090565b90565b600081519050610d1681611179565b92915050565b600081519050610d2b81611190565b92915050565b600082601f830112610d4257600080fd5b8151610d55610d5082611067565b61103a565b91508082526020830160208301858383011115610d7157600080fd5b610d7c838284611146565b50505092915050565b600081359050610d94816111a7565b92915050565b600081519050610da9816111a7565b92915050565b600060208284031215610dc157600080fd5b6000610dcf84828501610d07565b91505092915050565b600060208284031215610dea57600080fd5b6000610df884828501610d1c565b91505092915050565b600060208284031215610e1357600080fd5b600082015167ffffffffffffffff811115610e2d57600080fd5b610e3984828501610d31565b91505092915050565b600060208284031215610e5457600080fd5b6000610e6284828501610d85565b91505092915050565b600060208284031215610e7d57600080fd5b6000610e8b84828501610d9a565b91505092915050565b60008060408385031215610ea757600080fd5b6000610eb585828601610d85565b9250506020610ec685828601610d85565b9150509250929050565b610ed9816110fe565b82525050565b610ee8816110b6565b82525050565b610ef7816110c8565b82525050565b610f0681611110565b82525050565b6000610f19601283611093565b91507fe694afe4bb98e98791e9a29de4b88de5afb900000000000000000000000000006000830152602082019050919050565b610f55816110f4565b82525050565b6000602082019050610f706000830184610edf565b92915050565b6000604082019050610f8b6000830185610ed0565b610f986020830184610efd565b9392505050565b6000602082019050610fb46000830184610eee565b92915050565b60006020820190508181036000830152610fd381610f0c565b9050919050565b6000602082019050610fef6000830184610f4c565b92915050565b600060808201905061100a6000830187610f4c565b6110176020830186610f4c565b6110246040830185610f4c565b6110316060830184610f4c565b95945050505050565b6000604051905081810181811067ffffffffffffffff8211171561105d57600080fd5b8060405250919050565b600067ffffffffffffffff82111561107e57600080fd5b601f19601f8301169050602081019050919050565b600082825260208201905092915050565b60006110af826110d4565b9050919050565b60006110c1826110d4565b9050919050565b60008115159050919050565b600073ffffffffffffffffffffffffffffffffffffffff82169050919050565b6000819050919050565b600061110982611122565b9050919050565b600061111b826110f4565b9050919050565b600061112d82611134565b9050919050565b600061113f826110d4565b9050919050565b60005b83811015611164578082015181840152602081019050611149565b83811115611173576000848401525b50505050565b611182816110a4565b811461118d57600080fd5b50565b611199816110b6565b81146111a457600080fd5b50565b6111b0816110f4565b81146111bb57600080fd5b5056fea365627a7a72315820a6a05b72e5ff1bac5d559fc55e6d5a79a160f0833ebc57c55d98884c64162e356c6578706572696d656e74616cf564736f6c63430005100040",
  "source": "// SPDX-License-Identifier: MIT\r\npragma solidity ^0.5.16;\r\npragma experimental ABIEncoderV2;\r\n\r\nimport \"./PostContract.sol\";\r\nimport \"./UserContract.sol\";\r\n\r\ncontract BoardContract {\r\n    PostContract private postContract;\r\n    UserContract private userContract;\r\n\r\n    event TransEvent(address,uint);\r\n\r\n    //展出的帖子\r\n    struct Exhibit {\r\n        string title;\r\n        uint id; // 帖子的id \r\n        address author;// 帖子作者\r\n        uint startDate;// 起始日期\r\n        uint expireDate;// 终止日期\r\n    }\r\n\r\n    //展板\r\n    struct Board {\r\n        uint count;// 已经展示的贴子数\r\n        uint lastTime;// 创建展板时间\r\n        uint span;// 分钱周期\r\n        uint fee; // 每分钟单价（为方便测试，实际可调整为月、年）\r\n    }\r\n\r\n    Board public board;\r\n\r\n    constructor (address _postContractAddress,address _userContractAddress) public {\r\n        postContract = PostContract(_postContractAddress);\r\n        userContract = UserContract(_userContractAddress);\r\n        board = Board(\r\n            0,// 初始展示0篇\r\n            now,// 创建展板时间\r\n            1 minutes,// 分钱周期1分钟（便于测试）\r\n            10*(10**18)// 初始为10eth\r\n        );\r\n    }\r\n\r\n    mapping (uint=>Exhibit) exhibits;\r\n\r\n    function getContractAddress() public view returns(address payable ){\r\n        address payable _payableAddr = address(uint160(address(this)));\r\n        return _payableAddr;\r\n    }\r\n\r\n    //展示帖子\r\n    function showThePost (uint _id, uint time) public payable returns(bool){\r\n        if(board.count>=3){\r\n            return false;\r\n        }\r\n        address payable _address = address(uint160(address(this)));\r\n        uint _fee = (time/60)*board.fee*(userContract.getUserCounter());\r\n        require(msg.value==_fee,\"支付金额不对\");\r\n        _address.transfer(msg.value);//向合约转账\r\n        board.count++;\r\n        exhibits[board.count]=Exhibit(\r\n            postContract.getTitle(_id),\r\n            _id,\r\n            postContract.getAuthor(_id),\r\n            now,\r\n            now+time\r\n        );\r\n        return true;\r\n    }\r\n\r\n    //获取目前展示帖子的单价\r\n    function getBoardFee() public view returns(uint){\r\n        return board.fee*(userContract.getUserCounter());\r\n    }\r\n\r\n    //获取要展示的帖子数\r\n    function getBoardCount() public view returns(uint){\r\n        return board.count;\r\n    }\r\n\r\n    //获取展示帖子的id\r\n    function getId(uint _num) public view returns(uint){\r\n        return exhibits[_num].id;\r\n    }\r\n\r\n    //获取展示帖子的到期时间\r\n    function getExpireDate(uint _num) public view returns(uint){\r\n        return exhibits[_num].expireDate;\r\n    }\r\n\r\n    //检查帖子是否到期\r\n    function check() public {\r\n        bool[4] memory expired;\r\n        uint num=board.count;\r\n        //判断哪几篇帖子没过期\r\n        while(num>0){\r\n            if(exhibits[num].expireDate<=now){\r\n                expired[num]=false;\r\n            }else{\r\n                expired[num]=true;\r\n            }\r\n            num--;\r\n        }\r\n        uint _count = 0;\r\n        //判断没过期的数量\r\n        while(++num<=board.count){\r\n            if(expired[num]){\r\n                _count++;\r\n            }\r\n        }\r\n        uint i=1;\r\n        //去除过期的帖子\r\n        while(i<=board.count){\r\n            uint j=i;\r\n            while(j<=board.count){\r\n                if(expired[j]){\r\n                    exhibits[i]=exhibits[j];\r\n                    expired[j]=false;\r\n                    break;\r\n                }\r\n                j++;\r\n            }\r\n            i++;\r\n        }\r\n        //更换栈顶\r\n        board.count=_count;\r\n    }\r\n\r\n    // 检查是否到分红时间\r\n    function checkTime()public payable returns(bool){\r\n        if(now>board.lastTime+board.span){\r\n            board.lastTime = now;\r\n            distribute();\r\n            return true;\r\n        }else{\r\n            return false;\r\n        }\r\n    }\r\n\r\n    //分钱给所有用户\r\n    function distribute() public payable {\r\n        uint num = userContract.getUserCounter();\r\n        address payable  _address = getContractAddress();\r\n        uint _balance = _address.balance;\r\n        uint divident = 0;\r\n        //分红，若有小数，则留到下一次分配\r\n        if(_balance%num==0){\r\n            divident=_balance/num;\r\n        }else{\r\n            _balance = _balance-(_balance%num);\r\n            divident = _balance/num;\r\n        }\r\n        //分别给每一个用户地址转账\r\n        while(num!=0){\r\n            address payable _receiver = address(uint160(userContract.getUser(num)));\r\n            _receiver.transfer(divident);\r\n            num--;\r\n        }\r\n    }\r\n    \r\n    function() external payable { \r\n        emit TransEvent(address(this),1);\r\n    }\r\n\r\n}",
  "sourcePath": "C:\\ds\\src\\contracts\\BoardContract.sol",
  "compiler": {
    "name": "solc",
    "version": "0.5.16+commit.9c3226ce.Emscripten.clang"
  },
  "schemaVersion": "3.4.13",
  "updatedAt": "2024-06-14T04:56:08.138Z",
  "networkType": "ethereum",
  "devdoc": {
    "methods": {}
  },
  "userdoc": {
    "methods": {}
  }
}