{
  "contractName": "PostContract",
  "abi": [
    {
      "inputs": [],
      "payable": false,
      "stateMutability": "nonpayable",
      "type": "constructor"
    },
    {
      "constant": true,
      "inputs": [
        {
          "internalType": "uint256",
          "name": "",
          "type": "uint256"
        }
      ],
      "name": "posts",
      "outputs": [
        {
          "internalType": "string",
          "name": "title",
          "type": "string"
        },
        {
          "internalType": "string",
          "name": "contentHash",
          "type": "string"
        },
        {
          "internalType": "address payable",
          "name": "author",
          "type": "address"
        },
        {
          "internalType": "uint256",
          "name": "postId",
          "type": "uint256"
        },
        {
          "internalType": "uint256",
          "name": "fee",
          "type": "uint256"
        },
        {
          "internalType": "uint256",
          "name": "commentsNum",
          "type": "uint256"
        },
        {
          "internalType": "uint256",
          "name": "advertisementsNum",
          "type": "uint256"
        },
        {
          "internalType": "uint256",
          "name": "advertisementFee",
          "type": "uint256"
        },
        {
          "internalType": "uint256",
          "name": "heatvalue",
          "type": "uint256"
        }
      ],
      "payable": false,
      "stateMutability": "view",
      "type": "function"
    },
    {
      "constant": false,
      "inputs": [
        {
          "internalType": "string",
          "name": "_title",
          "type": "string"
        },
        {
          "internalType": "string",
          "name": "_contentHash",
          "type": "string"
        },
        {
          "internalType": "uint256",
          "name": "_fee",
          "type": "uint256"
        }
      ],
      "name": "createPost",
      "outputs": [
        {
          "internalType": "uint256",
          "name": "",
          "type": "uint256"
        }
      ],
      "payable": false,
      "stateMutability": "nonpayable",
      "type": "function"
    },
    {
      "constant": false,
      "inputs": [
        {
          "internalType": "uint256",
          "name": "_id",
          "type": "uint256"
        },
        {
          "internalType": "string",
          "name": "_content",
          "type": "string"
        }
      ],
      "name": "comment",
      "outputs": [],
      "payable": false,
      "stateMutability": "nonpayable",
      "type": "function"
    },
    {
      "constant": false,
      "inputs": [
        {
          "internalType": "uint256",
          "name": "_id",
          "type": "uint256"
        },
        {
          "internalType": "string",
          "name": "_title",
          "type": "string"
        },
        {
          "internalType": "string",
          "name": "_content",
          "type": "string"
        }
      ],
      "name": "createAdvertisement",
      "outputs": [],
      "payable": true,
      "stateMutability": "payable",
      "type": "function"
    },
    {
      "constant": false,
      "inputs": [
        {
          "internalType": "uint256",
          "name": "_id",
          "type": "uint256"
        }
      ],
      "name": "changeFee",
      "outputs": [],
      "payable": false,
      "stateMutability": "nonpayable",
      "type": "function"
    },
    {
      "constant": true,
      "inputs": [
        {
          "internalType": "uint256",
          "name": "_id",
          "type": "uint256"
        },
        {
          "internalType": "uint256",
          "name": "_num",
          "type": "uint256"
        }
      ],
      "name": "getAdvertisement",
      "outputs": [
        {
          "internalType": "string",
          "name": "",
          "type": "string"
        }
      ],
      "payable": false,
      "stateMutability": "view",
      "type": "function"
    },
    {
      "constant": true,
      "inputs": [
        {
          "internalType": "uint256",
          "name": "_id",
          "type": "uint256"
        }
      ],
      "name": "getAdvertisementNum",
      "outputs": [
        {
          "internalType": "uint256",
          "name": "",
          "type": "uint256"
        }
      ],
      "payable": false,
      "stateMutability": "view",
      "type": "function"
    },
    {
      "constant": true,
      "inputs": [
        {
          "internalType": "uint256",
          "name": "_id",
          "type": "uint256"
        }
      ],
      "name": "getAdvertisementFee",
      "outputs": [
        {
          "internalType": "uint256",
          "name": "",
          "type": "uint256"
        }
      ],
      "payable": false,
      "stateMutability": "view",
      "type": "function"
    },
    {
      "constant": false,
      "inputs": [
        {
          "internalType": "uint256",
          "name": "_id",
          "type": "uint256"
        },
        {
          "internalType": "uint256",
          "name": "_num",
          "type": "uint256"
        }
      ],
      "name": "coverAd",
      "outputs": [],
      "payable": false,
      "stateMutability": "nonpayable",
      "type": "function"
    },
    {
      "constant": true,
      "inputs": [
        {
          "internalType": "uint256",
          "name": "_id",
          "type": "uint256"
        }
      ],
      "name": "getCommentNum",
      "outputs": [
        {
          "internalType": "uint256",
          "name": "",
          "type": "uint256"
        }
      ],
      "payable": false,
      "stateMutability": "view",
      "type": "function"
    },
    {
      "constant": true,
      "inputs": [
        {
          "internalType": "uint256",
          "name": "_id",
          "type": "uint256"
        },
        {
          "internalType": "uint256",
          "name": "_num",
          "type": "uint256"
        }
      ],
      "name": "getCommentContent",
      "outputs": [
        {
          "internalType": "string",
          "name": "",
          "type": "string"
        }
      ],
      "payable": false,
      "stateMutability": "view",
      "type": "function"
    },
    {
      "constant": true,
      "inputs": [
        {
          "internalType": "uint256",
          "name": "_id",
          "type": "uint256"
        },
        {
          "internalType": "uint256",
          "name": "_num",
          "type": "uint256"
        }
      ],
      "name": "getCommentAuthor",
      "outputs": [
        {
          "internalType": "address",
          "name": "",
          "type": "address"
        }
      ],
      "payable": false,
      "stateMutability": "view",
      "type": "function"
    },
    {
      "constant": true,
      "inputs": [
        {
          "internalType": "uint256",
          "name": "_id",
          "type": "uint256"
        }
      ],
      "name": "getFee",
      "outputs": [
        {
          "internalType": "uint256",
          "name": "",
          "type": "uint256"
        }
      ],
      "payable": false,
      "stateMutability": "view",
      "type": "function"
    },
    {
      "constant": true,
      "inputs": [
        {
          "internalType": "uint256",
          "name": "_id",
          "type": "uint256"
        }
      ],
      "name": "getAuthor",
      "outputs": [
        {
          "internalType": "address payable",
          "name": "",
          "type": "address"
        }
      ],
      "payable": false,
      "stateMutability": "view",
      "type": "function"
    },
    {
      "constant": true,
      "inputs": [],
      "name": "getIdCounter",
      "outputs": [
        {
          "internalType": "uint256",
          "name": "",
          "type": "uint256"
        }
      ],
      "payable": false,
      "stateMutability": "view",
      "type": "function"
    },
    {
      "constant": true,
      "inputs": [
        {
          "internalType": "uint256",
          "name": "_id",
          "type": "uint256"
        }
      ],
      "name": "getContent",
      "outputs": [
        {
          "internalType": "string",
          "name": "",
          "type": "string"
        }
      ],
      "payable": false,
      "stateMutability": "view",
      "type": "function"
    },
    {
      "constant": true,
      "inputs": [
        {
          "internalType": "uint256",
          "name": "_id",
          "type": "uint256"
        }
      ],
      "name": "getTitle",
      "outputs": [
        {
          "internalType": "string",
          "name": "",
          "type": "string"
        }
      ],
      "payable": false,
      "stateMutability": "view",
      "type": "function"
    },
    {
      "constant": false,
      "inputs": [
        {
          "internalType": "uint256",
          "name": "_id",
          "type": "uint256"
        }
      ],
      "name": "caculateHeatvalue",
      "outputs": [],
      "payable": false,
      "stateMutability": "nonpayable",
      "type": "function"
    },
    {
      "constant": true,
      "inputs": [
        {
          "internalType": "uint256",
          "name": "_id",
          "type": "uint256"
        }
      ],
      "name": "getHeatvalue",
      "outputs": [
        {
          "internalType": "uint256",
          "name": "",
          "type": "uint256"
        }
      ],
      "payable": false,
      "stateMutability": "view",
      "type": "function"
    }
  ],
  "bytecode": "0x608060405234801561001057600080fd5b506000600181905550611791806100286000396000f3fe6080604052600436106101145760003560e01c8063742d931a116100a0578063b6305d9911610064578063b6305d9914610408578063f2a72c0f14610445578063fb5fb2a114610482578063fcecca47146104ab578063fcee45f4146104e857610114565b8063742d931a146102d75780638324c1f714610314578063929a79b1146103515780639e2b84881461038e578063a850a3e4146103cb57610114565b80630ca9203d116100e75780630ca9203d146101f45780631805c5231461021f57806337c872c714610248578063543c12b4146102715780636a1db1bf146102ae57610114565b8063010646721461011957806301e77177146101355780630b1e7f83146101725780630b7ad54c146101b7575b600080fd5b610133600480360361012e91908101906112ee565b610525565b005b34801561014157600080fd5b5061015c60048036036101579190810190611271565b610734565b60405161016991906115fb565b60405180910390f35b34801561017e57600080fd5b5061019960048036036101949190810190611271565b610753565b6040516101ae99989796959493929190611520565b60405180910390f35b3480156101c357600080fd5b506101de60048036036101d99190810190611271565b6108f1565b6040516101eb91906114fe565b60405180910390f35b34801561020057600080fd5b506102096109a8565b60405161021691906115fb565b60405180910390f35b34801561022b57600080fd5b506102466004803603610241919081019061129a565b6109b2565b005b34801561025457600080fd5b5061026f600480360361026a919081019061136d565b610a95565b005b34801561027d57600080fd5b5061029860048036036102939190810190611271565b610b7e565b6040516102a591906115fb565b60405180910390f35b3480156102ba57600080fd5b506102d560048036036102d09190810190611271565b610b9d565b005b3480156102e357600080fd5b506102fe60048036036102f991908101906111f2565b610bf7565b60405161030b91906115fb565b60405180910390f35b34801561032057600080fd5b5061033b60048036036103369190810190611271565b610d5c565b60405161034891906115fb565b60405180910390f35b34801561035d57600080fd5b5061037860048036036103739190810190611271565b610d7b565b60405161038591906114fe565b60405180910390f35b34801561039a57600080fd5b506103b560048036036103b09190810190611271565b610e32565b6040516103c291906114e3565b60405180910390f35b3480156103d757600080fd5b506103f260048036036103ed919081019061136d565b610e71565b6040516103ff91906114fe565b60405180910390f35b34801561041457600080fd5b5061042f600480360361042a919081019061136d565b610f3d565b60405161043c91906114c8565b60405180910390f35b34801561045157600080fd5b5061046c60048036036104679190810190611271565b610f91565b60405161047991906115fb565b60405180910390f35b34801561048e57600080fd5b506104a960048036036104a49190810190611271565b610fb0565b005b3480156104b757600080fd5b506104d260048036036104cd919081019061136d565b610ff9565b6040516104df91906114fe565b60405180910390f35b3480156104f457600080fd5b5061050f600480360361050a9190810190611271565b6110c5565b60405161051c91906115fb565b60405180910390f35b6000806000858152602001908152602001600020600701549050803414610581576040517f08c379a0000000000000000000000000000000000000000000000000000000008152600401610578906115bb565b60405180910390fd5b600080600086815260200190815260200160002060020160009054906101000a900473ffffffffffffffffffffffffffffffffffffffff1690508073ffffffffffffffffffffffffffffffffffffffff166108fc839081150290604051600060405180830381858888f19350505050158015610601573d6000803e3d6000fd5b50600080600087815260200190815260200160002060060160008154600101919050819055905060405180608001604052808681526020018581526020013373ffffffffffffffffffffffffffffffffffffffff16815260200160011515815250600080888152602001908152602001600020600901600083815260200190815260200160002060008201518160000190805190602001906106a49291906110e4565b5060208201518160010190805190602001906106c19291906110e4565b5060408201518160020160006101000a81548173ffffffffffffffffffffffffffffffffffffffff021916908373ffffffffffffffffffffffffffffffffffffffff16021790555060608201518160020160146101000a81548160ff021916908315150217905550905050505050505050565b6000806000838152602001908152602001600020600701549050919050565b6000602052806000526040600020600091509050806000018054600181600116156101000203166002900480601f0160208091040260200160405190810160405280929190818152602001828054600181600116156101000203166002900480156107ff5780601f106107d4576101008083540402835291602001916107ff565b820191906000526020600020905b8154815290600101906020018083116107e257829003601f168201915b505050505090806001018054600181600116156101000203166002900480601f01602080910402602001604051908101604052809291908181526020018280546001816001161561010002031660029004801561089d5780601f106108725761010080835404028352916020019161089d565b820191906000526020600020905b81548152906001019060200180831161088057829003601f168201915b5050505050908060020160009054906101000a900473ffffffffffffffffffffffffffffffffffffffff169080600301549080600401549080600501549080600601549080600701549080600a0154905089565b60606000808381526020019081526020016000206001018054600181600116156101000203166002900480601f01602080910402602001604051908101604052809291908181526020018280546001816001161561010002031660029004801561099c5780601f106109715761010080835404028352916020019161099c565b820191906000526020600020905b81548152906001019060200180831161097f57829003601f168201915b50505050509050919050565b6000600154905090565b600080600084815260200190815260200160002060050160008154600101919050819055905060405180604001604052808381526020013373ffffffffffffffffffffffffffffffffffffffff1681525060008085815260200190815260200160002060080160008381526020019081526020016000206000820151816000019080519060200190610a459291906110e4565b5060208201518160010160006101000a81548173ffffffffffffffffffffffffffffffffffffffff021916908373ffffffffffffffffffffffffffffffffffffffff160217905550905050505050565b3373ffffffffffffffffffffffffffffffffffffffff1660008084815260200190815260200160002060020160009054906101000a900473ffffffffffffffffffffffffffffffffffffffff1673ffffffffffffffffffffffffffffffffffffffff1614610b38576040517f08c379a0000000000000000000000000000000000000000000000000000000008152600401610b2f906115db565b60405180910390fd5b6000806000848152602001908152602001600020600901600083815260200190815260200160002060020160146101000a81548160ff0219169083151502179055505050565b6000806000838152602001908152602001600020600601549050919050565b60008060008381526020019081526020016000206004015414610bf457678ac7230489e800006000808381526020019081526020016000206007015401600080838152602001908152602001600020600701819055505b50565b600080339050600060016000815460010191905081905590506040518061012001604052808781526020018681526020018373ffffffffffffffffffffffffffffffffffffffff168152602001828152602001670de0b6b3a7640000860281526020016000815260200160008152602001678ac7230489e800008152602001600081525060008060015481526020019081526020016000206000820151816000019080519060200190610cab9291906110e4565b506020820151816001019080519060200190610cc89291906110e4565b5060408201518160020160006101000a81548173ffffffffffffffffffffffffffffffffffffffff021916908373ffffffffffffffffffffffffffffffffffffffff160217905550606082015181600301556080820151816004015560a0820151816005015560c0820151816006015560e0820151816007015561010082015181600a015590505080925050509392505050565b6000806000838152602001908152602001600020600a01549050919050565b60606000808381526020019081526020016000206000018054600181600116156101000203166002900480601f016020809104026020016040519081016040528092919081815260200182805460018160011615610100020316600290048015610e265780601f10610dfb57610100808354040283529160200191610e26565b820191906000526020600020905b815481529060010190602001808311610e0957829003601f168201915b50505050509050919050565b600080600083815260200190815260200160002060020160009054906101000a900473ffffffffffffffffffffffffffffffffffffffff169050919050565b606060008084815260200190815260200160002060080160008381526020019081526020016000206000018054600181600116156101000203166002900480601f016020809104026020016040519081016040528092919081815260200182805460018160011615610100020316600290048015610f305780601f10610f0557610100808354040283529160200191610f30565b820191906000526020600020905b815481529060010190602001808311610f1357829003601f168201915b5050505050905092915050565b6000806000848152602001908152602001600020600801600083815260200190815260200160002060010160009054906101000a900473ffffffffffffffffffffffffffffffffffffffff16905092915050565b6000806000838152602001908152602001600020600501549050919050565b600080828152602001908152602001600020600601546000808381526020019081526020016000206005015401600080838152602001908152602001600020600a018190555050565b606060008084815260200190815260200160002060090160008381526020019081526020016000206001018054600181600116156101000203166002900480601f0160208091040260200160405190810160405280929190818152602001828054600181600116156101000203166002900480156110b85780601f1061108d576101008083540402835291602001916110b8565b820191906000526020600020905b81548152906001019060200180831161109b57829003601f168201915b5050505050905092915050565b6000806000838152602001908152602001600020600401549050919050565b828054600181600116156101000203166002900490600052602060002090601f016020900481019282601f1061112557805160ff1916838001178555611153565b82800160010185558215611153579182015b82811115611152578251825591602001919060010190611137565b5b5090506111609190611164565b5090565b61118691905b8082111561118257600081600090555060010161116a565b5090565b90565b600082601f83011261119a57600080fd5b81356111ad6111a882611643565b611616565b915080825260208301602083018583830111156111c957600080fd5b6111d48382846116e4565b50505092915050565b6000813590506111ec81611737565b92915050565b60008060006060848603121561120757600080fd5b600084013567ffffffffffffffff81111561122157600080fd5b61122d86828701611189565b935050602084013567ffffffffffffffff81111561124a57600080fd5b61125686828701611189565b9250506040611267868287016111dd565b9150509250925092565b60006020828403121561128357600080fd5b6000611291848285016111dd565b91505092915050565b600080604083850312156112ad57600080fd5b60006112bb858286016111dd565b925050602083013567ffffffffffffffff8111156112d857600080fd5b6112e485828601611189565b9150509250929050565b60008060006060848603121561130357600080fd5b6000611311868287016111dd565b935050602084013567ffffffffffffffff81111561132e57600080fd5b61133a86828701611189565b925050604084013567ffffffffffffffff81111561135757600080fd5b61136386828701611189565b9150509250925092565b6000806040838503121561138057600080fd5b600061138e858286016111dd565b925050602061139f858286016111dd565b9150509250929050565b6113b2816116a8565b82525050565b6113c181611696565b82525050565b60006113d28261167a565b6113dc8185611685565b93506113ec8185602086016116f3565b6113f581611726565b840191505092915050565b600061140b8261166f565b6114158185611685565b93506114258185602086016116f3565b61142e81611726565b840191505092915050565b6000611446600c83611685565b91507fe98791e9a29de4b88de5afb900000000000000000000000000000000000000006000830152602082019050919050565b6000611486600c83611685565b91507fe6b2a1e69c89e69d83e9999000000000000000000000000000000000000000006000830152602082019050919050565b6114c2816116da565b82525050565b60006020820190506114dd60008301846113b8565b92915050565b60006020820190506114f860008301846113a9565b92915050565b6000602082019050818103600083015261151881846113c7565b905092915050565b600061012082019050818103600083015261153b818c611400565b9050818103602083015261154f818b611400565b905061155e604083018a6113a9565b61156b60608301896114b9565b61157860808301886114b9565b61158560a08301876114b9565b61159260c08301866114b9565b61159f60e08301856114b9565b6115ad6101008301846114b9565b9a9950505050505050505050565b600060208201905081810360008301526115d481611439565b9050919050565b600060208201905081810360008301526115f481611479565b9050919050565b600060208201905061161060008301846114b9565b92915050565b6000604051905081810181811067ffffffffffffffff8211171561163957600080fd5b8060405250919050565b600067ffffffffffffffff82111561165a57600080fd5b601f19601f8301169050602081019050919050565b600081519050919050565b600081519050919050565b600082825260208201905092915050565b60006116a1826116ba565b9050919050565b60006116b3826116ba565b9050919050565b600073ffffffffffffffffffffffffffffffffffffffff82169050919050565b6000819050919050565b82818337600083830152505050565b60005b838110156117115780820151818401526020810190506116f6565b83811115611720576000848401525b50505050565b6000601f19601f8301169050919050565b611740816116da565b811461174b57600080fd5b5056fea365627a7a723158202733d3a1979549e9f96364301ffa8572ea5f72f7d3e63e37c1088764c1bfc9bb6c6578706572696d656e74616cf564736f6c63430005100040",
  "source": "// SPDX-License-Identifier: MIT\r\npragma solidity ^0.5.16;\r\npragma experimental ABIEncoderV2;\r\n\r\ncontract PostContract {\r\n\r\n    struct Comment {\r\n        string content; // \r\n        address author; // \r\n    }\r\n\r\n    struct Advertisement {\r\n        string title;\r\n        string contentHash; //  \r\n        address author;\r\n        bool show;\r\n    }\r\n\r\n    struct Post {\r\n        string title;  // \r\n        string contentHash;  // IPFS\r\n        address payable author;  // \r\n        uint postId;\r\n        uint fee;\r\n        uint commentsNum; // \r\n        uint advertisementsNum; // \r\n        uint advertisementFee; // \r\n        mapping (uint => Comment) comments;\r\n        mapping (uint => Advertisement) advertisements;\r\n        uint heatvalue;//\r\n    }\r\n\r\n    mapping(uint256 => Post) public posts;  // \r\n    uint private postIdCounter;  // ID\r\n\r\n    constructor () public {\r\n        postIdCounter = 0;\r\n    }\r\n\r\n    /**\r\n     * @dev \r\n     * @param _title \r\n     * @param _contentHash \r\n     */\r\n    function createPost(string memory _title, string memory _contentHash, uint _fee) public returns(uint) {  \r\n        // \r\n        address payable author = msg.sender;\r\n        uint id = ++postIdCounter;\r\n        // \r\n        posts[postIdCounter] = Post(\r\n            _title,\r\n            _contentHash,\r\n            author,\r\n            id,\r\n            _fee*(10**18),\r\n            0,\r\n            0,\r\n            10*(10**18),// 10eth\r\n            0\r\n        );\r\n        //postIdCounter++;\r\n        return id;\r\n    }\r\n\r\n    // \r\n    function comment(uint _id, string memory _content) public {\r\n        uint counter = ++posts[_id].commentsNum;// \r\n        posts[_id].comments[counter] = Comment(\r\n            _content,\r\n            msg.sender\r\n        );\r\n    }\r\n\r\n    // \r\n    function createAdvertisement(uint _id, string memory _title, string memory _content) public payable {\r\n        // \r\n        uint _fee = posts[_id].advertisementFee;\r\n        require(msg.value == _fee,\"\");\r\n        address payable receiveAddress = posts[_id].author;\r\n        receiveAddress.transfer(_fee);// \r\n\r\n        uint counter = ++posts[_id].advertisementsNum;// \r\n        posts[_id].advertisements[counter] = Advertisement(\r\n            _title,\r\n            _content,\r\n            msg.sender,\r\n            true\r\n        );\r\n    }\r\n\r\n    // ,+10eth\r\n    function changeFee(uint _id) public {\r\n        if(posts[_id].fee!=0){\r\n            posts[_id].advertisementFee=posts[_id].advertisementFee+10*(10**18);\r\n        }\r\n    }\r\n\r\n    //\r\n    function getAdvertisement(uint _id,uint _num) public view returns (string memory){\r\n        return posts[_id].advertisements[_num].contentHash;\r\n    }\r\n\r\n    //\r\n    function getAdvertisementNum(uint _id) public view returns (uint){\r\n        return posts[_id].advertisementsNum;\r\n    }\r\n\r\n    //\r\n    function getAdvertisementFee(uint _id) public view returns (uint){\r\n        return posts[_id].advertisementFee;\r\n    }\r\n\r\n    // \r\n    function coverAd(uint _id, uint _num) public{\r\n        require(posts[_id].author == msg.sender,'');\r\n        posts[_id].advertisements[_num].show = false;\r\n    }\r\n\r\n    // \r\n    function getCommentNum(uint _id) public view returns (uint) {\r\n        return posts[_id].commentsNum;\r\n    }\r\n\r\n    // \r\n    function getCommentContent(uint _id, uint _num) public view returns (string memory) {\r\n        return posts[_id].comments[_num].content;\r\n    }\r\n\r\n    // \r\n    function getCommentAuthor(uint _id, uint _num) public view returns (address) {\r\n        return posts[_id].comments[_num].author;\r\n    }\r\n\r\n    //id\r\n    function getFee(uint _id) public view returns(uint){\r\n        return posts[_id].fee;\r\n    }\r\n    //idid\r\n    function getAuthor(uint _id) public view  returns(address payable){\r\n        return posts[_id].author;\r\n    }\r\n    //\r\n    function getIdCounter() public view returns(uint){\r\n        return postIdCounter;\r\n    }\r\n\r\n    function getContent(uint _id) public view  returns(string memory){\r\n        return posts[_id].contentHash;\r\n    }\r\n\r\n    function getTitle(uint _id) public view  returns(string memory){\r\n        return posts[_id].title;\r\n    }\r\n\r\n    \r\n    //\r\n    function caculateHeatvalue(uint _id) public {\r\n         posts[_id].heatvalue=posts[_id].commentsNum+posts[_id].advertisementsNum;\r\n    }\r\n\r\n      //\r\n    function getHeatvalue(uint _id) public view  returns(uint){\r\n        return posts[_id].heatvalue;\r\n    }\r\n\r\n\r\n    // \r\n    function uint2str(uint _i) internal pure returns (string memory _uintAsString) {\r\n        if (_i == 0) {\r\n            return \"0\";\r\n        }\r\n        uint j = _i;\r\n        uint len;\r\n        while (j != 0) {\r\n            len++;\r\n            j /= 10;\r\n        }\r\n        bytes memory bstr = new bytes(len);\r\n        uint k = len - 1;\r\n        while (_i != 0) {\r\n            bstr[k--] = byte(uint8(48 + _i % 10));\r\n            _i /= 10;\r\n        }\r\n        return string(bstr);\r\n    }\r\n}",
  "sourcePath": "C:\\ds\\src\\contracts\\PostContract.sol",
  "compiler": {
    "name": "solc",
    "version": "0.5.16+commit.9c3226ce.Emscripten.clang"
  },
  "schemaVersion": "3.4.13",
  "updatedAt": "2024-06-14T04:56:08.128Z",
  "networkType": "ethereum",
  "devdoc": {
    "methods": {
      "createPost(string,string,uint256)": {
        "details": "",
        "params": {
          "_contentHash": "",
          "_title": ""
        }
      }
    }
  },
  "userdoc": {
    "methods": {}
  }
}