{
  "contractName": "UserContract",
  "abi": [
    {
      "inputs": [
        {
          "internalType": "address",
          "name": "_postContractAddress",
          "type": "address"
        }
      ],
      "payable": false,
      "stateMutability": "nonpayable",
      "type": "constructor"
    },
    {
      "constant": true,
      "inputs": [],
      "name": "userCounter",
      "outputs": [
        {
          "internalType": "uint256",
          "name": "",
          "type": "uint256"
        }
      ],
      "payable": false,
      "stateMutability": "view",
      "type": "function"
    },
    {
      "constant": true,
      "inputs": [
        {
          "internalType": "uint256",
          "name": "",
          "type": "uint256"
        }
      ],
      "name": "userId",
      "outputs": [
        {
          "internalType": "address",
          "name": "userAddress",
          "type": "address"
        },
        {
          "internalType": "bool",
          "name": "existence",
          "type": "bool"
        }
      ],
      "payable": false,
      "stateMutability": "view",
      "type": "function"
    },
    {
      "constant": true,
      "inputs": [
        {
          "internalType": "address",
          "name": "",
          "type": "address"
        }
      ],
      "name": "users",
      "outputs": [
        {
          "internalType": "address",
          "name": "userAddress",
          "type": "address"
        },
        {
          "internalType": "bool",
          "name": "existence",
          "type": "bool"
        }
      ],
      "payable": false,
      "stateMutability": "view",
      "type": "function"
    },
    {
      "constant": false,
      "inputs": [],
      "name": "createUser",
      "outputs": [],
      "payable": false,
      "stateMutability": "nonpayable",
      "type": "function"
    },
    {
      "constant": true,
      "inputs": [],
      "name": "getUserCounter",
      "outputs": [
        {
          "internalType": "uint256",
          "name": "",
          "type": "uint256"
        }
      ],
      "payable": false,
      "stateMutability": "view",
      "type": "function"
    },
    {
      "constant": true,
      "inputs": [
        {
          "internalType": "uint256",
          "name": "_id",
          "type": "uint256"
        }
      ],
      "name": "getUser",
      "outputs": [
        {
          "internalType": "address",
          "name": "",
          "type": "address"
        }
      ],
      "payable": false,
      "stateMutability": "view",
      "type": "function"
    },
    {
      "constant": true,
      "inputs": [
        {
          "internalType": "uint256",
          "name": "_id",
          "type": "uint256"
        }
      ],
      "name": "check",
      "outputs": [
        {
          "internalType": "bool",
          "name": "",
          "type": "bool"
        }
      ],
      "payable": false,
      "stateMutability": "view",
      "type": "function"
    },
    {
      "constant": false,
      "inputs": [
        {
          "internalType": "uint256",
          "name": "_id",
          "type": "uint256"
        }
      ],
      "name": "purchase",
      "outputs": [
        {
          "internalType": "bool",
          "name": "",
          "type": "bool"
        }
      ],
      "payable": true,
      "stateMutability": "payable",
      "type": "function"
    },
    {
      "constant": true,
      "inputs": [
        {
          "internalType": "address",
          "name": "_a",
          "type": "address"
        }
      ],
      "name": "getExistence",
      "outputs": [
        {
          "internalType": "bool",
          "name": "",
          "type": "bool"
        }
      ],
      "payable": false,
      "stateMutability": "view",
      "type": "function"
    }
  ],
  "bytecode": "0x608060405234801561001057600080fd5b50604051610e1b380380610e1b83398181016040526100329190810190610095565b806000806101000a81548173ffffffffffffffffffffffffffffffffffffffff021916908373ffffffffffffffffffffffffffffffffffffffff160217905550600060028190555050610107565b60008151905061008f816100f0565b92915050565b6000602082840312156100a757600080fd5b60006100b584828501610080565b91505092915050565b60006100c9826100d0565b9050919050565b600073ffffffffffffffffffffffffffffffffffffffff82169050919050565b6100f9816100be565b811461010457600080fd5b50565b610d05806101166000396000f3fe6080604052600436106100865760003560e01c80638cc8074a116100595780638cc8074a14610147578063a87430ba14610185578063b0467deb146101c3578063efef39a114610200578063f0c37a591461023057610086565b80630b2d447c1461008b57806325ad91ce146100c85780635f72f450146100df578063834f6c731461011c575b600080fd5b34801561009757600080fd5b506100b260048036036100ad9190810190610a67565b61025b565b6040516100bf9190610bbc565b60405180910390f35b3480156100d457600080fd5b506100dd6102b4565b005b3480156100eb57600080fd5b5061010660048036036101019190810190610ab9565b610555565b6040516101139190610bbc565b60405180910390f35b34801561012857600080fd5b506101316105bf565b60405161013e9190610bf7565b60405180910390f35b34801561015357600080fd5b5061016e60048036036101699190810190610ab9565b6105c9565b60405161017c929190610b93565b60405180910390f35b34801561019157600080fd5b506101ac60048036036101a79190810190610a67565b61061a565b6040516101ba929190610b93565b60405180910390f35b3480156101cf57600080fd5b506101ea60048036036101e59190810190610ab9565b61066b565b6040516101f79190610b78565b60405180910390f35b61021a60048036036102159190810190610ab9565b6106ab565b6040516102279190610bbc565b60405180910390f35b34801561023c57600080fd5b50610245610a0d565b6040516102529190610bf7565b60405180910390f35b6000600160008373ffffffffffffffffffffffffffffffffffffffff1673ffffffffffffffffffffffffffffffffffffffff16815260200190815260200160002060020160009054906101000a900460ff169050919050565b60011515600160003373ffffffffffffffffffffffffffffffffffffffff1673ffffffffffffffffffffffffffffffffffffffff16815260200190815260200160002060020160009054906101000a900460ff161515146105535733600160003373ffffffffffffffffffffffffffffffffffffffff1673ffffffffffffffffffffffffffffffffffffffff16815260200190815260200160002060000160006101000a81548173ffffffffffffffffffffffffffffffffffffffff021916908373ffffffffffffffffffffffffffffffffffffffff16021790555060018060003373ffffffffffffffffffffffffffffffffffffffff1673ffffffffffffffffffffffffffffffffffffffff168152602001908152602001600020600101600080815260200190815260200160002060006101000a81548160ff02191690831515021790555060018060003373ffffffffffffffffffffffffffffffffffffffff1673ffffffffffffffffffffffffffffffffffffffff16815260200190815260200160002060020160006101000a81548160ff021916908315150217905550600260008154809291906001019190505550600160003373ffffffffffffffffffffffffffffffffffffffff1673ffffffffffffffffffffffffffffffffffffffff1681526020019081526020016000206003600060025481526020019081526020016000206000820160009054906101000a900473ffffffffffffffffffffffffffffffffffffffff168160000160006101000a81548173ffffffffffffffffffffffffffffffffffffffff021916908373ffffffffffffffffffffffffffffffffffffffff1602179055506002820160009054906101000a900460ff168160020160006101000a81548160ff0219169083151502179055509050505b565b6000600160003373ffffffffffffffffffffffffffffffffffffffff1673ffffffffffffffffffffffffffffffffffffffff168152602001908152602001600020600101600083815260200190815260200160002060009054906101000a900460ff169050919050565b6000600254905090565b60036020528060005260406000206000915090508060000160009054906101000a900473ffffffffffffffffffffffffffffffffffffffff16908060020160009054906101000a900460ff16905082565b60016020528060005260406000206000915090508060000160009054906101000a900473ffffffffffffffffffffffffffffffffffffffff16908060020160009054906101000a900460ff16905082565b60006003600083815260200190815260200160002060000160009054906101000a900473ffffffffffffffffffffffffffffffffffffffff169050919050565b60008060009050600160003373ffffffffffffffffffffffffffffffffffffffff1673ffffffffffffffffffffffffffffffffffffffff168152602001908152602001600020600101600084815260200190815260200160002060009054906101000a900460ff16156107215760019050610a04565b60008060009054906101000a900473ffffffffffffffffffffffffffffffffffffffff1673ffffffffffffffffffffffffffffffffffffffff1663fcee45f4856040518263ffffffff1660e01b815260040161077d9190610bf7565b60206040518083038186803b15801561079557600080fd5b505afa1580156107a9573d6000803e3d6000fd5b505050506040513d601f19601f820116820180604052506107cd9190810190610ae2565b9050803414610811576040517f08c379a000000000000000000000000000000000000000000000000000000000815260040161080890610bd7565b60405180910390fd5b60008060009054906101000a900473ffffffffffffffffffffffffffffffffffffffff1673ffffffffffffffffffffffffffffffffffffffff16639e2b8488866040518263ffffffff1660e01b815260040161086d9190610bf7565b60206040518083038186803b15801561088557600080fd5b505afa158015610899573d6000803e3d6000fd5b505050506040513d601f19601f820116820180604052506108bd9190810190610a90565b90508073ffffffffffffffffffffffffffffffffffffffff166108fc839081150290604051600060405180830381858888f19350505050158015610905573d6000803e3d6000fd5b506000809054906101000a900473ffffffffffffffffffffffffffffffffffffffff1673ffffffffffffffffffffffffffffffffffffffff16636a1db1bf866040518263ffffffff1660e01b81526004016109609190610bf7565b600060405180830381600087803b15801561097a57600080fd5b505af115801561098e573d6000803e3d6000fd5b5050505060018060003373ffffffffffffffffffffffffffffffffffffffff1673ffffffffffffffffffffffffffffffffffffffff168152602001908152602001600020600101600087815260200190815260200160002060006101000a81548160ff0219169083151502179055506001925050505b80915050919050565b60025481565b600081359050610a2281610c7d565b92915050565b600081519050610a3781610c94565b92915050565b600081359050610a4c81610cab565b92915050565b600081519050610a6181610cab565b92915050565b600060208284031215610a7957600080fd5b6000610a8784828501610a13565b91505092915050565b600060208284031215610aa257600080fd5b6000610ab084828501610a28565b91505092915050565b600060208284031215610acb57600080fd5b6000610ad984828501610a3d565b91505092915050565b600060208284031215610af457600080fd5b6000610b0284828501610a52565b91505092915050565b610b1481610c23565b82525050565b610b2381610c47565b82525050565b6000610b36600c83610c12565b91507fe98791e9a29de4b88de5afb900000000000000000000000000000000000000006000830152602082019050919050565b610b7281610c73565b82525050565b6000602082019050610b8d6000830184610b0b565b92915050565b6000604082019050610ba86000830185610b0b565b610bb56020830184610b1a565b9392505050565b6000602082019050610bd16000830184610b1a565b92915050565b60006020820190508181036000830152610bf081610b29565b9050919050565b6000602082019050610c0c6000830184610b69565b92915050565b600082825260208201905092915050565b6000610c2e82610c53565b9050919050565b6000610c4082610c53565b9050919050565b60008115159050919050565b600073ffffffffffffffffffffffffffffffffffffffff82169050919050565b6000819050919050565b610c8681610c23565b8114610c9157600080fd5b50565b610c9d81610c35565b8114610ca857600080fd5b50565b610cb481610c73565b8114610cbf57600080fd5b5056fea365627a7a723158204f13742ec074eea4792620036ff489623607c060192739378db612a3d6570efa6c6578706572696d656e74616cf564736f6c63430005100040",
  "source": "// SPDX-License-Identifier: MIT\r\npragma solidity ^0.5.16;\r\npragma experimental ABIEncoderV2;\r\n\r\nimport \"./PostContract.sol\";\r\n\r\ncontract UserContract {\r\n    PostContract private postContract;\r\n\r\n    struct User {\r\n        address userAddress;  // 用户地址\r\n        mapping(uint => bool) readable; // 该用户可阅读的帖子\r\n        bool existence;\r\n    }\r\n\r\n    mapping(address => User) public users;  // 用户地址到用户信息的映射\r\n    uint public userCounter;// 用户数量计数器\r\n    mapping (uint => User) public userId;\r\n\r\n    constructor (address _postContractAddress) public {\r\n        postContract = PostContract(_postContractAddress);\r\n        userCounter = 0;\r\n    }\r\n\r\n    function createUser() public {\r\n        if (users[msg.sender].existence != true){\r\n            users[msg.sender].userAddress = msg.sender;\r\n            users[msg.sender].readable[0] = true;\r\n            users[msg.sender].existence = true;\r\n            userCounter++;\r\n            userId[userCounter]=users[msg.sender];\r\n        }\r\n    }\r\n\r\n    //获取总用户数\r\n    function getUserCounter() public view returns(uint){\r\n        return userCounter;\r\n    }\r\n    // 通过id查询用户地址\r\n    function getUser(uint _id) public view returns(address){\r\n        return userId[_id].userAddress;\r\n    }\r\n   \r\n    // 检查用户是否有阅读权限\r\n    function check(uint _id) public view returns(bool){\r\n        return users[msg.sender].readable[_id];\r\n    }\r\n\r\n    function purchase(uint _id) public payable returns(bool){\r\n        bool result = false;\r\n        if(users[msg.sender].readable[_id]){\r\n            result = true;\r\n        }else{\r\n            uint fee = postContract.getFee(_id);\r\n            require(msg.value == fee,\"金额不对\");\r\n            address payable receiveAddress = postContract.getAuthor(_id);\r\n            receiveAddress.transfer(fee);\r\n            postContract.changeFee(_id);\r\n            users[msg.sender].readable[_id] = true;\r\n            result = true;\r\n        }\r\n        return result;\r\n    }\r\n\r\n    //获取账户状态\r\n    function getExistence(address _a) public view returns (bool){\r\n        return users[_a].existence;\r\n    }\r\n}",
  "sourcePath": "C:\\ds\\src\\contracts\\UserContract.sol",
  "compiler": {
    "name": "solc",
    "version": "0.5.16+commit.9c3226ce.Emscripten.clang"
  },
  "schemaVersion": "3.4.13",
  "updatedAt": "2024-06-14T04:56:08.121Z",
  "networkType": "ethereum",
  "devdoc": {
    "methods": {}
  },
  "userdoc": {
    "methods": {}
  }
}